:020000040000FA
:060000009DEF10F012005C
:020006001200E6
:080008009EAA02D067EF0DF083
:020010001200DC
:020012000000EC
:0100140000EB
:03001500010400E3
:08001800F2A402D0EEEF0CF09F
:0C0020001200D08E9F8AF28EF28C12002B
:04002C0007001500B4
:100030000000330F000003000000140000002B0E2E
:1000400000000100000012000000360F0000020056
:100050000000EC2200000006000018010000AA22A7
:10006000000000090000420000008C220000000E89
:1000700000001E00000086210000000B00000601A9
:0200800000007E
:0E0082000F010051030A10E0010A0AE0030A10
:1000900001E00FD00901415102E1010E416F0AD880
:1000A00008D0BBDA0901416F04D09CDA0901416B29
:1000B00000D01200D9CFE6FFE1CFD9FF030EE12631
:1000C000DE6ADD6A0F0113510F01361904E10F01D9
:1000D00014510F01371902E1366B376B130E086E9E
:1000E000096A36CF0DF037CF0EF054EC0EF00F0149
:1000F00015510624176F16510720186F17CFE9FF07
:1001000018CFEAFF120EEB50E76E020EE7CFDBFFCF
:10011000DB0412E0D9CFE9FFDACFEAFFEE2A000EC6
:10012000ED22EECF14F0EDCF15F01351141802E1CB
:100130001451151801E108D00F01362B000E37239A
:10014000020EDB50BFE00AD8030EE15C02E2E16A76
:10015000E552E16EE552E7CFD9FF1200D9CFE6FFB5
:10016000E1CFD9FF030EE12617CFE9FF18CFEAFF51
:10017000080EE926000EEA22EE2AEF2217CFE9FF49
:1001800018CFEAFFEF500901006F17CFE9FF18CF32
:10019000EAFF010EEB50016F17CFE9FF18CFEAFF1E
:1001A000020EE926000EEA22EECF14F0EFCF15F092
:1001B00015C014F0156A14C002F917CFE9FF18CF63
:1001C000EAFF020EE926000EEA22EECF14F0EFCF8E
:1001D00015F01450036F17CFE9FF18CFEAFF010E97
:1001E000EB50050808E017CFE9FF18CFEAFF010E32
:1001F000EB50060827E117CFE9FF18CFEAFF060EFC
:10020000E926000EEA22EECF16F0EFCF17F0010E2E
:10021000D89016361736E806FBE10F01195116245F
:10022000E96E1A511720EA6EEECF14F0EFCF15F0F9
:1002300017CFE9FF18CFEAFF040E14C0EBFF050E3D
:1002400015C0EBFF17CFE9FF18CFEAFF040EE92630
:10025000000EEA22EECF14F0EFCF15F015C014F027
:10026000156A14C004F917CFE9FF18CFEAFF040E8E
:10027000E926000EEA22EECF14F0EFCF15F014506D
:100280000901056F17CFE9FF18CFEAFF010EEB5008
:10029000100803E121D9DF6E0DD017CFE9FF18CF89
:1002A000EAFF010EEB500F0803E14FD8DF6E02D0DA
:1002B000080EDF6E020EDF5CE66E74EC07F0E552AE
:1002C000DE52F3CFDEFFF4CFDDFFDD52010EDBCFD8
:1002D00014F0020EDBCF15F015C014F0156ADF5CC8
:1002E000EA6A000FE96E090EEA2214C0EFFFFF0E62
:1002F000E76E010EDBCF14F0020EDBCF15F0E750F6
:100300001416156ADF04EA6A000FE96E090EEA2284
:1003100014C0EFFFDFCFE6FF0BEC08F0E5520F0152
:10032000020E006F17CFE9FF18CFEAFFEF50000968
:1003300002E15EEC06F0030EE15C02E2E16AE552E6
:10034000E16EE552E7CFD9FF1200D9CFE6FFE1CF4A
:10035000D9FF080EE12617CFE9FF18CFEAFF040EF8
:10036000E926000EEA22EECF14F0EFCF15F0040ECE
:100370000F0B05E0D89015321432E806FBE114505B
:10038000DF6E020EDF02010EF3CFDBFF020EDB6A2F
:10039000070EF36E030EF3CFDBFF17CFE9FF18CF85
:1003A000EAFF040EE926000EEA22EECF14F0EFCFAA
:1003B00015F00001156A0F0E1416000ED8801454A3
:1003C000000E155403E2DF2A010EDB2A010EDBCFFB
:1003D00006F9070EDB6ADF50F36E070EDBCFF4FF82
:1003E000F350F45C64E2070EDB50166E176A17CF09
:1003F000E9FF18CFEAFF060EE926000EEA221650A2
:10040000EE24146E1750EE20156E010ED89014369F
:100410001536E806FBE10F0119511424E96E1A5153
:100420001520EA6E040EEECFDBFF050EEDCFDBFFED
:10043000FF0EE76E040EDBCF14F0050EDBCF15F0D8
:10044000E7501416156A030EDB50EA6A000FE96ED6
:10045000090EEA2214C0EFFF020EDB2A010EDB5068
:10046000F36E020EDBCFF4FFF350F45C1DE2040EDA
:10047000DBCF14F0050EDBCF15F015C014F0156AB4
:10048000030EDB28EA6A000FE96E090EEA2214C0A7
:10049000EFFF020EDB2A146E030EDBCFE7FF1450D2
:1004A000E726030EE7CFDBFF070EDB2A94D7010E0A
:1004B000DB50090FE76E060EE7CFDBFFDB50146E53
:1004C000080EE15C03E200D0E16AE552E16E1450EF
:1004D000E552E7CFD9FF1200D9CFE6FFE1CFD9FF30
:1004E000070EE12617CFE9FF18CFEAFF040EE92631
:1004F000000EEA22EECF14F0EFCF15F0010ED890E7
:1005000014361536E806FBE11450DF6EDE52070E96
:10051000DD6E17CFE9FF18CFEAFF040EE926000EC3
:10052000EA22020EEFCFDBFFDFCF06F9050EDB6A12
:10053000020EDB50F36E050EDBCFF4FFF350F45CDC
:100540003DE2050EDB50020D0F011951F324E96E57
:100550001A51F420EA6E030EEECFDBFF040EEDCF4E
:10056000DBFF030EDBCF14F0040EDBCF15F015C05C
:1005700014F0156A010EDB50EA6A000FE96E090EED
:10058000EA2214C0EFFF010EDB2AFF0EE76E030E16
:10059000DBCF14F0040EDBCF15F0E7501416156A0C
:1005A000010EDB50EA6A000FE96E090EEA2214C060
:1005B000EFFF010EDB2A050EDB2ABAD7090EDF2476
:1005C000E76E060EE7CFDBFFDB50146E070EE15C33
:1005D00003E200D0E16AE552E16E1450E552E7CF44
:1005E000D9FF1200F0EC0DF00F010F51065C146EF4
:1005F00010510758156E11510858166E12510958AE
:10060000176E1450075D15500859165009591750A8
:100610000A5902E2010E006F1200D9CFE6FFE1CFC6
:10062000D9FF020EE126DF6E06EC0BF000096FE049
:10063000010EDB6A06EC0BF0000951E0400E0901E7
:10064000405D03E1DE52010EDD6E23EC0BF0E66E41
:1006500009014051EA6A000FE96E090EEA22E552EB
:10066000E750EF6E402B0BCF14F00CCF15F00A0EB5
:100670000D6E0E6A14C008F015C009F067EC10F09A
:1006800008C014F009C015F0166A176A1BCF06F0EF
:100690001CCF07F01DCF08F01ECF09F0020ED89036
:1006A0000932083207320632E806F9E1400E0B6ED5
:1006B000420E0C6E0F0E0D6E0E6AAEEC0FF014C0F3
:1006C0000BF015C00CF016C00DF017C00EF076EC54
:1006D0000FF00250E66EB8EC10F0E552ABD7050E05
:1006E0000901405D03E3010EDB5002E08EDA0ED01B
:1006F00017CFE9FF18CFEAFFEF50005D04E085DA7D
:100700000901406B03D030D80901406B1FD0F0ECD9
:100710000DF00F010F51065C146E10510758156E45
:1007200011510858166E12510958176E1450035D76
:1007300015500459165005591750065907E265DA45
:10074000DF6E0901406B0F01010E006FDF50146E68
:10075000020EE15C03E200D0E16AE552E16E145062
:10076000E552E7CFD9FF1200D9CFE6FFE1CFD9FF9D
:10077000070EE126020E0901405DEA6A000FE96EEC
:10078000090EEA22EF50E66ED950010FE96EDACF7A
:10079000EAFFE552E750EE6EED6A020E405DE66E4E
:1007A000A3DBE552030EF3CFDBFF040EF4CFDBFF38
:1007B000010EDBCF14F0020EDBCF15F014C015F0E4
:1007C000146A050E14C0DBFF060E15C0DBFF09011D
:1007D0004005EA6A000FE96E090EEA22EF50146E36
:1007E000156AD950050FE96EDACFEAFF1450EE1200
:1007F0001550ED12030EDBCF14F0040EDBCF15F015
:10080000050EDB50141803E1060EDB5015182EE11F
:10081000800E011580080EE117CFE9FF18CFEAFF1F
:100820000E0EE926000EEA22EE2AEF22EED9030E82
:10083000DF6E1BD00151050A15E0030A13E0090A17
:1008400011E01F0A0FE0140A0BE0070A09E0020A90
:1008500005E0030A03E0D9D9DF6E07D017D805D029
:10086000C6D803D045D9DF6E00D002D0CED9DF6E16
:10087000DF50146E070EE15C03E200D0E16AE5523E
:10088000E16E1450E552E7CFD9FF1200D9CFE6FF51
:10089000E1CFD9FF070EE12617CFE9FF18CFEAFF16
:1008A000040EE926000EEA22EECF14F0EFCF15F089
:1008B000040E0F0B05E0D89015321432E806FBE168
:1008C0001450DF6E020EDF02010EF3CFDBFF020ECB
:1008D000DB6A030EF36EF3CFDBFF17CFE9FF18CF10
:1008E000EAFF040EE926000EEA22EECF14F0EFCF65
:1008F00015F00001156A0F0E1416000ED88014545E
:10090000000E155403E2DF2A010EDB2A010EDB5034
:100910000901025D61E1060EDB6ADF50F36E060E2F
:10092000DBCFF4FFF350F45C55E2030EDB50EA6AD0
:10093000000FE96E090EEA22EF50E66ED950040F5F
:10094000E96EDACFEAFFE552E750EE6EED6A020E8D
:10095000DB2A010EDB50F36E020EDBCFF4FFF35007
:10096000F45C25E2030EDB28EA6A000FE96E090E4B
:10097000EA22EF50000EF350166E176A040EDB5099
:100980001610146E050EDB501710156E040E14C0F1
:10099000DBFF050E15C0DBFF020EDB2A146E030E13
:1009A000DBCFE7FF1450E726030EE7CFDBFF060E91
:1009B000DB50020D0F011951F324E96E1A51F42096
:1009C000EA6E040EDBCFEEFF050EDBCFEDFF060E69
:1009D000DB2AA3D773D901D018D9070EE15C02E254
:1009E000E16AE552E16EE552E7CFD9FF1200D9CFB7
:1009F000E6FFE1CFD9FF020EE126030EDF6E09010B
:100A00000251146E156A17CFE9FF18CFEAFF040EE2
:100A1000E926000EEA22EECF16F0EFCF17F0010E16
:100A2000D89016361736E806FBE11650141802E186
:100A30001750151852E1010EDB6ADBCF14F017CF07
:100A4000E9FF18CFEAFF040EE926000EEA22EECFF6
:100A500015F0EFCF16F01550145C000E16543BE263
:100A6000DF28EA6A000FE96E090EEA22EFCF18F0DC
:100A7000DF50EA6A000FE96E090EEA22EF50000E1D
:100A8000F3501810E66E010EDB50166E176A17CF82
:100A9000E9FF18CFEAFF060EE926000EEA221650FB
:100AA000EE24146E1750EE20156E010ED8901436F9
:100AB0001536E806FBE10F0119511424E96E1A51AD
:100AC0001520EA6EE552E750EE6EED6A020EDF2663
:100AD000010EDB2AB2D7F2D801D097D8020EE15C22
:100AE00002E2E16AE552E16EE552E7CFD9FF12007A
:100AF000D9CFE6FFE1CFD9FF050EE126010EDF6E6B
:100B0000DB6A020EDB6A030EDB6A040EDB6A090194
:100B10000251E66ED950010FE96EDACFEAFFE552D5
:100B2000E750EE6EED6AD950010FE96EDACFEAFFB9
:100B3000EE50ED6EEF6A0351146E156AD950010F35
:100B4000E96EDACFEAFF1450EE121550ED1204519F
:100B5000E66ED950030FE96EDACFEAFFE552E750AF
:100B6000EE6EED6AD950030FE96EDACFEAFFEE5070
:100B7000ED6EEF6A0551E66ED950030FE96EDACFDC
:100B8000EAFFE552E750EE6EED6A010EDBCF14F09E
:100B9000020EDBCF15F017CFE9FF18CFEAFFE926E9
:100BA000000EEA22EECF16F0EFCF17F01650141811
:100BB00002E11750151819E1030EDBCF18F0040EEF
:100BC000DBCF19F017CFE9FF18CFEAFFE926000EB7
:100BD000EA22EECF1AF0EFCF1BF01A50181802E1FC
:100BE0001B50191802E16AD802D00FD8DF6EDF500F
:100BF000146E050EE15C03E200D0E16AE552E16E9D
:100C00001450E552E7CFD9FF1200D9CFE6FFE1CF6C
:100C1000D9FFE652020EDF6E17CFE9FF18CFEAFFC9
:100C2000100EE926000EEA22EE2AEF2217CFE9FF86
:100C300018CFEAFF0C0EE926000EEA22EE2AEF2278
:100C400017CFE9FF18CFEAFF100EE926000EEA22BF
:100C5000EECF14F0EFCF15F00F010151166E176AA9
:100C60001650145C1750155814E317CFE9FF18CF2E
:100C7000EAFF120EE926000EEA22EF6A17CFE9FF1B
:100C800018CFEAFF100EEB6A110EEB6A040EDF6E4E
:100C900002D0020EDF6E030E006FF0EC0DF006C006
:100CA0000FFF07C010FF08C011FF09C012FFDF507F
:100CB00000D0E552E552E7CFD9FF120017CFE9FF88
:100CC00018CFEAFF0A0EE926000EEA22EE2AEF22EA
:100CD00017CFE9FF18CFEAFF120EE926000EEA222D
:100CE000EF6A17CFE9FF18CFEAFF100EEB6A110E7B
:100CF000EB6A0F01030E006FF0EC0DF006C00FFF62
:100D000007C010FF08C011FF09C012FF1200D9CFA1
:100D1000E6FFE1CFD9FFF70EDBCF07F0F80EDBCF10
:100D200008F0F90EDBCF09F0FA0EDBCF0AF00A3437
:100D3000000E0A1809E6D880000E07544B0E08541E
:100D4000000E0954000E0A5406E20F01EE0E0B6F5E
:100D5000020E0C6F21D0200E146EC50E156EFB0E08
:100D6000166E176A14C006F015C007F016C008F01A
:100D700017C009F0F70EDBCF0BF0F80EDBCF0CF04D
:100D8000F90EDBCF0DF0FA0EDBCF0EF020EC0EF0FB
:100D900006C00BFF07C00CFF020E086E096A0BCFDE
:100DA0000DF00CCF0EF054EC0EF006C00DFF07C096
:100DB0000EFF0F01010E006FF30EDBCF03FFF40EE9
:100DC000DBCF04FFF50EDBCF05FFF60EDBCF06FF12
:100DD000EF0EDBCF07FFF00EDBCF08FFF10EDBCF0E
:100DE00009FFF20EDBCF0AFFEE0EDBCF01FFEA0EAA
:100DF000DBCF13FFEB0EDBCF14FFEC0EDBCF15FFC9
:100E0000ED0EDBCF16FFD950F70FE96EFF0EDA209B
:100E1000EA6EEECFE6FFEECFE6FFEECFE6FFEFCFD6
:100E2000E6FF4FEC09F0E552E552E552E552FB0EC4
:100E3000DBCF1BFFFC0EDBCF1CFFFD0EDBCF1DFF4E
:100E4000FE0EDBCF1EFFE552E7CFD9FF1200D9CF50
:100E5000E6FFE1CFD9FFFD0EDBCFE9FFFE0EDBCFD2
:100E6000EAFFFC0EDBCFEFFFFD0EDBCFE9FFFE0E4E
:100E7000DBCFEAFFEE52FB0EDBCFEFFFFD0EDBCF49
:100E8000E9FFFE0EDBCFEAFF020EE926000EEA22A2
:100E9000F90EDBCFEEFFFA0EDBCFEDFFFD0EDBCF61
:100EA000E9FFFE0EDBCFEAFF040EE926000EEA2280
:100EB000F70EDBCFEEFFF80EDBCFEDFFFD0EDBCF45
:100EC000E9FFFE0EDBCFEAFF120EE926000EEA2252
:100ED000010EEF6EF50EDBCF19FFF60EDBCF1AFF1A
:100EE000E552E7CFD9FF1200D9CFE6FFE1CFD9FF16
:100EF000080EE126DE68DD68060EDB6AFE0EDB50BA
:100F0000F36E060EDBCFF4FFF350F45C4DE2060EF9
:100F1000DB50EA6A000FE96E090EEA22EF50E76E35
:100F2000000EDFCF14F0010EDBCF15F0E750141ADE
:100F300014C0DEFF15C0DDFF010EF36E070EF3CF08
:100F4000DBFFDB5008082DE3DECF14F0DDCF15F01A
:100F5000010E1416000E1516040E14C0DBFF050E4C
:100F600015C0DBFFD9CFE9FFDACFEAFF010E0F0B87
:100F700006E0EC52D890ED32EF32E806FAE1D950B3
:100F8000040FE96EDACFEAFFEE50ED1007E0D9CF9B
:100F9000E9FFDACFEAFFEE70A00EED1A070EDB2AAA
:100FA000D0D7060EDB2AAAD7DECF14F0DDCF15F09E
:100FB00015C014F0156A020E14C0DBFF030E15C035
:100FC000DBFFDECF16F0DDCF17F016C017F0166A84
:100FD000020EDB501610146E030EDB501710156E48
:100FE00014C0DEFF15C0DDFFD9CFE9FFDACFEAFF7D
:100FF000DECF14F0DDCF15F014C0F3FF15C0F4FF01
:10100000080EE15C03E200D0E16AE552E16EE552D0
:10101000E7CFD9FF1200D9CFE6FFE1CFD9FFE652E3
:10102000DF6AFE0EDB50DF5C0DE2DF50EA6A000F84
:10103000E96E090EEA22EF50E66ECBEC09F0E552BC
:10104000DF2AEFD703EC0AF00DCF14F00ECF15F026
:101050000A0E0D6E0E6A14C008F015C009F067EC98
:1010600010F008C014F009C015F0166A176A1BCFFB
:1010700006F01CCF07F01DCF08F01ECF09F0020EBE
:10108000D8900932083207320632E806F9E1400EFC
:101090000B6E420E0C6E0F0E0D6E0E6AAEEC0FF064
:1010A00014C00BF015C00CF016C00DF017C00EF0F8
:1010B00076EC0FF00250E66EB8EC10F0E552F0EC72
:1010C0000DF006C00FFF07C010FF08C011FF09C0D8
:1010D00012FFE552E552E7CFD9FF12000901415155
:0410E00000D012002A
:0C10E400DACFE4FFE2CFDAFFE9CFE4FF4F
:1010F000EACFE4FFF6CFE4FFF7CFE4FFF5CFE4FF5C
:10110000F3CFE4FFF4CFE4FFFACFE4FF00EE00F00A
:10111000140EE80403E3EECFE4FFFBD700EE14F077
:10112000080EE80403E3EECFE4FFFBD7E652D9CF85
:10113000E6FFE1CFD9FFE652D2EC0FF0DF6E0C01F3
:101140008951892BEA6A8C0FE96E0C0EEA22DFCFF7
:10115000EFFF800E895D01E3896B8B2BA49AE5522A
:10116000E552E7CFD9FFE55200EE1BF0080EE80488
:1011700003E3E5CFEDFFFBD700EE13F0140EE80418
:1011800003E3E5CFEDFFFBD7E5CFFAFFE5CFF4FFB3
:10119000E5CFF3FFE5CFF5FFE5CFF7FFE5CFF6FFAE
:1011A000E5CFEAFFE5CFE9FFE5CFDAFF1100DACFBF
:1011B000E4FFE2CFDAFFE9CFE4FFEACFE4FFE65253
:1011C000D9CFE6FFE1CFD9FFE6520B01025104E18E
:1011D000ACA2FED7AC9A1BD00151EA6A030FE96EAC
:1011E0000B0EEA22EFCFDFFFDF50AD6E012B800E3A
:1011F000015D01E3016B000EE76E0219E8AE02D05B
:10120000023503D0E750D880025501E20207E552CB
:10121000E552E7CFD9FFE552E5CFEAFFE5CFE9FF99
:10122000E5CFDAFF1100DACFE4FFE2CFDAFFE9CF52
:10123000E4FFEACFE4FFE652D9CFE6FFE1CFD9FFE2
:10124000E6520C01085104E172A2FED7729A1BD03B
:101250000751EA6A090FE96E0C0EEA22EFCFDFFFB1
:10126000DF50736E072B800E075D01E3076B000EE6
:10127000E76E0819E8AE02D0083503D0E750D880F1
:10128000085501E20807E552E552E7CFD9FFE552DC
:10129000E5CFEAFFE5CFE9FFE5CFDAFF1100D9CFCF
:1012A000E6FFE1CFD9FFE6527C0EDF6ED950FB0F8F
:1012B000E96EFF0EDA20EA6EEE2A000EEE22EE2232
:1012C000EE22D950FB0FE96EFF0EDA20EA6E040E13
:1012D000E76ED890EF36010EEB36020EEB36030EBA
:1012E000EB36E706F6E1146A240E156EF40E166E60
:1012F000176A14C006F015C007F016C008F017C032
:1013000009F0FB0EDBCF0BF0FC0EDBCF0CF0FD0E7B
:10131000DBCF0DF0FE0EDBCF0EF0AEEC0FF0FB0ED0
:1013200006C0DBFFFC0E07C0DBFFFD0E08C0DBFFC5
:10133000FE0E09C0DBFFFB0EDBCFE6FFFC0EDBCFB2
:10134000E6FFDFCFE6FF3DEC0FF0E552E552E55258
:10135000AC8AAC9EE552E552E7CFD9FF1200D9CF57
:10136000E6FFE1CFD9FFE6527C0EDF6E670EE66E38
:10137000E66ADFCFE6FF01EC0FF0E552E552E552F9
:10138000D08E718E728A729EA38AA58AE552E5522A
:10139000E7CFD9FF1200D9CFE6FFE1CFD9FFACA24A
:1013A000FED70B010051002BEA6A030FE96E0B0E0A
:1013B000EA22FE0EDBCFEFFF022B800E005D01E381
:1013C000006B010E00D0E552E7CFD9FF1200D9CF54
:1013D000E6FFE1CFD9FF72A2FED70C010651062B22
:1013E000EA6A090FE96E0C0EEA22FE0EDBCFEFFF70
:1013F000082B800E065D01E3066B010E00D0E5525E
:10140000E7CFD9FF1200D9CFE6FFE1CFD9FF060E13
:10141000E126010EF36E020EF3CFDBFF030EDB6A53
:10142000020EDBCF14F0DB06030EDBCF15F001E27A
:10143000DB061450151006E0040EE66E7DEC10F08D
:10144000E552EED7000E0B01E76E0219E8AE02D0AE
:10145000023503D0E750D880025523E20151EA6AF1
:10146000030FE96E0B0EEA22010EEFCFDBFFACA2F9
:10147000FED7010EDB50AD6EACA2FED70B01012BE7
:10148000800E015D01E3016B000EE76E0219E8AE0C
:1014900002D0023503D0E750D880025501E202079E
:1014A000D1D7010EF36E040EF3CFDBFF050EDB6A1E
:1014B000040EDBCF14F0DB06050EDBCF15F001E2E6
:1014C000DB061450151006E0040EE66E7DEC10F0FD
:1014D000E552EED7146E060EE15C02E2E16AE552D7
:1014E000E16E1450E552E7CFD9FF1200D9CFE6FFE5
:1014F000E1CFD9FF060EE126010EF36E020EF3CF07
:10150000DBFF030EDB6A020EDBCF14F0DB06030EFB
:10151000DBCF15F001E2DB061450151006E0040ED7
:10152000E66E7DEC10F0E552EED7000E0C01E76E92
:101530000819E8AE02D0083503D0E750D880085526
:1015400023E20751EA6A090FE96E0C0EEA22010E46
:10155000EFCFDBFF72A2FED7010EDB50736E72A2DB
:10156000FED70C01072B800E075D01E3076B000E11
:10157000E76E0819E8AE02D0083503D0E750D880EE
:10158000085501E20807D1D7010EF36E040EF3CF20
:10159000DBFF050EDB6A040EDBCF14F0DB06050E65
:1015A000DBCF15F001E2DB061450151006E0040E47
:1015B000E66E7DEC10F0E552EED7146E060EE15C9F
:1015C00002E2E16AE552E16E1450E552E7CFD9FF3D
:1015D0001200D9CFE6FFE1CFD9FFE652DF6AA39A26
:1015E000000E0C01E76E8B19E8AE02D08B3503D0EC
:1015F000E750D8808B5502E2010EDF6EA38ADF50E0
:1016000000D0E552E552E7CFD9FF1200D9CFE6FF6F
:10161000E1CFD9FFE652DF6A9D9A000E0B01E76E1B
:101620008519E8AE02D0853503D0E750D8808555BE
:1016300002E2010EDF6E9D8ADF5000D0E552E552D6
:10164000E7CFD9FF1200D9CFE6FFE1CFD9FFE652AD
:101650009D9A0B018451842BEA6A860FE96E0B0E6A
:10166000EA22EFCFDFFF800E845D01E3846B000E82
:10167000E76E8519E8AE02D0853503D0E750D880F3
:10168000855501E285079D8ADF5000D0E552E5527D
:10169000E7CFD9FF1200D9CFE6FFE1CFD9FFE6525D
:1016A000A39A0C018A518A2BEA6A8C0FE96E0C0E00
:1016B000EA22EFCFDFFF800E8A5D01E38A6B000E26
:1016C000E76E8B19E8AE02D08B3503D0E750D88097
:1016D0008B5501E28B079D8ADF5000D0E552E55221
:0616E000E7CFD9FF120064
:0A16E600D9CFE6FFE1CFD9FF060ED1
:1016F000E126030EDB6ADECF14F0DDCF15F00A0E13
:101700001502F3CF15F01402F3CF14F0F4501526A0
:10171000FA0E1426060E1522040E14C0DBFF050E69
:1017200015C0DBFF040EDBCFE9FFDB2A050EDBCFA4
:10173000EAFF01E3DB2A040EDBCFE9FF050EDBCF76
:10174000EAFF020EEFCFDBFF010EE66EE66A1F0E28
:10175000E66E0F0EE66E020EE66E010EE66EE66AAD
:10176000E66AE66AE66EE66AE66AE66AE66A4B0EEC
:10177000E66EE66AE66AE66A240EE66EF40EE66E49
:10178000E66A87EC06F0146E150EE15E1450060E44
:10179000E15C02E2E16AE552E16EE552E7CFD9FF92
:1017A0001200D9CFE6FFE1CFD9FF020EE1260F01EB
:1017B000322B1E0E325D19E30F013551020801E292
:1017C000356B3551352B0A0DF3CF14F0F4CF15F0EE
:1017D000FA0E1426060E152214C0E6FF15C0E6FF09
:1017E0004CD8E552E5520F01326B6EEC08F0DF6E1B
:1017F0000F013351DF5C03E03451DF5C33E106015C
:101800000151025D2EE00251120DF3CF14F0F4CF1E
:1018100015F0030E1426060E152214C0E6FF15C09F
:10182000E6FF0251EA6AED0FE96E060EEA22EF507A
:10183000E66EE66A000EE66EE66A100EE66E010ED1
:10184000E66E1F0EE66E0F0EE66E27EC07F0166EC4
:101850000A0EE15E16500601022B0D0E025D01E339
:10186000026B01D000D0020EE15C02E2E16AE552B7
:10187000E16EE552E7CFD9FF1200D9CFE6FFE1CF05
:10188000D9FF040EE126DF6A010EDB6A0601015171
:10189000120DF3CF14F0F4CF15F0030E1426060E3C
:1018A0001522020E14C0DBFF030E15C0DBFFDF5054
:1018B000E824E76EFD0EDBCFE9FFFE0EDBCFEAFF8B
:1018C000E750E926000EEA22EF5022E0DF50E8243C
:1018D000E76EFD0EDBCFE9FFFE0EDBCFEAFFE75040
:1018E000E926000EEA22EF50E66EDF50E824010FF1
:1018F000E76E020EDBCFE9FF030EDBCFEAFFE75016
:10190000E926000EEA22E552E750EF6EDF2ACFD734
:10191000010EDB50E824010FE76EFD0EDBCFE9FF7F
:10192000FE0EDBCFEAFFE750E926000EEA22EF5079
:1019300025E0010EDB50E824010FE76EFD0EDBCF42
:10194000E9FFFE0EDBCFEAFFE750E926000EEA22B0
:10195000EF50E66E010EDB50E824E76E020EDBCF9F
:10196000E9FF030EDBCFEAFFE750E926000EEA228B
:10197000E552E750EF6E010EDB2ACAD7010EDB50AD
:10198000DF5C0AE306010151EA6AED0FE96E060E1B
:10199000EA22DFCFEFFF12D0DF50F36E010EDBCF74
:1019A000F4FFF350F45C0AE306010151EA6AED0F1B
:1019B000E96E060EEA22010EDBCFEFFF0601012BD6
:1019C0000D0E015D01E3016B040EE15C02E2E16AD0
:0C19D000E552E16EE552E7CFD9FF1200AE
:0419DC00DACFE4FF7B
:1019E000E2CFDAFFE9CFE4FFEACFE4FFF6CFE4FF8E
:1019F000F7CFE4FFF5CFE4FFF3CFE4FFF4CFE4FF4C
:101A0000FACFE4FF00EE00F0140EE80403E3EECF9B
:101A1000E4FFFBD700EE14F0080EE80403E3EECF7A
:101A2000E4FFFBD7E652F2940E010E2B000E0F23BB
:101A3000102B1123122B1323142B1523162B1723D2
:101A40001807195B193504E218510008000E1955E2
:101A500008E31A2B000E1B231C231D23C80E186F2E
:101A6000196B0251031107E005D003CEFAFF0E01F6
:101A70000251F96EFADF00CEE6FF01CEE6FF2FEC51
:101A800010F0E552E552E55200EE1BF0080EE804B6
:101A900003E3E5CFEDFFFBD700EE13F0140EE804EF
:101AA00003E3E5CFEDFFFBD7E5CFFAFFE5CFF4FF8A
:101AB000E5CFF3FFE5CFF5FFE5CFF7FFE5CFF6FF85
:101AC000E5CFEAFFE5CFE9FFE5CFDAFF1100DACF96
:101AD000E4FFE2CFDAFFE9CFE4FFEACFE4FFF6CF9D
:101AE000E4FFF7CFE4FFF5CFE4FFF3CFE4FFF4CF5B
:101AF000E4FFFACFE4FF00EE00F0140EE80403E385
:101B0000EECFE4FFFBD700EE14F0080EE80403E389
:101B1000EECFE4FFFBD7E652D9CFE6FFE1CFD9FF06
:101B2000E652F1EC0FF0DF6E0B018351832BEA6A72
:101B3000860FE96E0B0EEA22DFCFEFFF800E835D8A
:101B400001E3836B852B9E9AE552E552E7CFD9FFDF
:101B5000E55200EE1BF0080EE80403E3E5CFEDFFCD
:101B6000FBD700EE13F0140EE80403E3E5CFEDFF1E
:101B7000FBD7E5CFFAFFE5CFF4FFE5CFF3FFE5CFE5
:101B8000F5FFE5CFF7FFE5CFF6FFE5CFEAFFE5CFBD
:081B9000E9FFE5CFDAFF1100C7
:081B9800D9CFE6FFE1CFD9FF30
:101BA0009F0EE66E4BEC10F0E552FD0EDBCF00FE13
:101BB000FE0EDBCF01FEFB0EDBCF02FEFC0EDBCF09
:101BC00003FEF194FD0EDBCFE6FFFE0EDBCFE6FF5A
:101BD0002FEC10F0E552E552E552E7CFD9FF1200A5
:101BE000D9CFE6FFE1CFD9FF040EE126F29A1ACE53
:101BF000DFFF010E1BCEDBFF020E1CCEDBFF030E50
:101C00001DCEDBFFF28ADECF06F0DECF07F0DECF9F
:101C100008F0DDCF09F0DD52DD52040EE15C03E295
:101C200000D0E16AE552E16EE552E7CFD9FF12003C
:101C3000F29E0E011A6B1B6B1C6B1D6BF28E120059
:101C4000006AE86A0EAE2DEF0EF00B6C0C1E0D1E36
:101C50000E1E0C220D220E22001E09AE38EF0EF0D1
:101C6000066C071E081E091E072208220922001EF4
:101C7000AEEC0FF009BE4FEF0EF000AE000C066C9C
:101C8000071E081E091EE86A072208220922026CA4
:101C9000031E041E051E032204220522000C00BEA2
:101CA0003FEF0EF00188FF0C08C012F008500D0243
:101CB000F4CF07F0F3CF06F009500E02F4CF09F08D
:101CC000F3CF08F00D02F3500726F4500822E86A1B
:101CD000092212500E02F3500726F4500822E86A37
:041CE0000922000CC9
:0C1CE4002C0EF66E000EF76E000EF86E6F
:101CF0000E010900F550236F0900F550246F03E130
:101D0000236701D03DD00900F5501E6F0900F55042
:101D10001F6F0900F550206F09000900F550E96EAA
:101D20000900F550EA6E090009000900F550216F1D
:101D30000900F550226F09000900F6CF25FEF7CF04
:101D400026FEF8CF27FE1ECEF6FF1FCEF7FF20CED1
:101D5000F8FF0E01215302E1225307E00900F5507C
:101D6000EE6E2107F8E22207F9D725CEF6FF26CE40
:101D7000F7FF27CEF8FF0E012307000E245BBFD725
:021D800012004F
:0E1D8200D9CFE6FFE1CFD9FFE65210EC10F00A
:101D9000000EE66EE66AE00EE66EB10EE66ECCEC84
:101DA0000DF0E552E552E552E55273EC0BF011EC03
:101DB00000F00E01640E0E5D000E0F5905E3AEEC4F
:101DC00010F00E010E6B0F6B0E01020E125D000E75
:101DD000135905E341EC00F00E01126B136B0E0179
:101DE000320E145D000E155905E3D1EC0BF00E0117
:101DF000146B156B0400DDD7E552E552E7CFD9FF30
:021E00001200CE
:0E1E0200D9CFE6FFDACFE6FFE1CFD9FFE2CF7E
:101E1000DAFF726A716AFD0EDBB07288DBA202D053
:101E2000728C718CDBB4728EDBA602D0718801D00B
:101E3000718ADBA802D0728401D07294DBBA7186F9
:101E4000DBAC02D0A38A01D0A39ADBAE02D0A38878
:101E500001D0A398FB0EDB50756EFC0EDBCF15F0A6
:101E600015C014F0156A1450766E728A718EE552A0
:0A1E7000E5CFDAFFE7CFD9FF12003B
:061E7A00D9CFE6FFDACF2C
:101E8000E6FFE1CFD9FFE2CFDAFFAC6AAB6AFD0E25
:101E9000DBB0AC88DBA202D0AC8CAB8CDBB4AC8EFC
:101EA000DBA602D0AB8801D0AB8ADBB8AC84DBBA4E
:101EB000AB86DBAC02D09D8A01D09D9ADBAE02D00E
:101EC0009D8801D09D98FB0EDB50AF6EFC0EDBCFE2
:101ED00015F015C014F0156A1450B06EAC8AAB8EB4
:0C1EE000E552E5CFDAFFE7CFD9FF120092
:041EEC0006500B028F
:101EF000F3CF02F0F4CF03F00C02F3500326000EF0
:101F0000F420046E06500D02F3500426000EF42057
:101F1000056E06500E02F350052607500B02F350D3
:101F20000326F4500422000E052207500C02F35041
:101F30000426F450052207500D02F35005260850E0
:101F40000B02F3500426F450052208500C02F35003
:0C1F5000052609500B02F3500526120074
:041F5C00056A046AA4
:101F6000036A026A200EE76ED890063607360836F6
:101F7000093602360336043605360B50025C0C5027
:101F800003580D5004580E50055809E30B50025EDB
:101F90000C50035A0D50045A0E50055A062AE72ECB
:041FA000E4D7120070
:0C1FA400D9CFE6FFDACFE6FFE1CFD9FF8E
:101FB000E2CFDAFFE652F20E0E01281771AC03D021
:101FC000289171B0288171B4288571B22887745026
:101FD000DF6EDF50E552E552E5CFDAFFE7CFD9FFFC
:021FE0001200ED
:0E1FE200D9CFE6FFDACFE6FFE1CFD9FFE2CF9D
:101FF000DAFFE652F20E0E012917ABAC03D029919D
:10200000ABB02981ABB42985ABB22987AE50DF6E66
:10201000DF50E552E552E5CFDAFFE7CFD9FF1200F6
:10202000C26A0F01386B396B3A6B3B6B3C6B700EBD
:10203000D36E96908490949C948E959E959C959A40
:10204000959895969594959281689296809692909F
:0E2050008090929480949292809292881200D6
:02205E00D9CFD8
:10206000E6FFDACFE6FFE1CFD9FFE2CFDAFFE652B3
:10207000E652FC0EDBCFDEFFDBCFDDFF010EDB50D7
:10208000D76EDF50D66EE552E552E552E5CFDAFF66
:06209000E7CFD9FF1200AA
:0A209600D9CFE6FFDACFE6FFE1CF75
:1020A000D9FFE2CFDAFFFD0EDB507F0BD56ED76A8A
:1020B000D66AF294FD0EDBAE02D0F28A01D0F29A1B
:0E20C000D58EE552E5CFDAFFE7CFD9FF12004B
:0220CE00056AA1
:1020D000046A100EE76ED8900836093604360536C5
:1020E0000D50045C0E50055805E30D50045E0E5073
:0A20F000055A082AE72EF0D7120067
:0620FA00FF0EE3501C6E16
:10210000480E01D04C0EE76EE72EFED7E76AE72EA9
:0A211000FED71C2EF7D700001200C6
:06211A00380EF36E00EE2A
:1021200000F00F0E01D81200EA6002D0EE6AFCD770
:0A213000F350E9601200EE6AFCD7DC
:06213A0010EE60F020EE43
:1021400060F0F86A019C72EC0EF003EC00F0C1EC58
:062150000EF0FBD71200A7
:0A2156000E012B6B12000E012B0589
:1021600003E12B6B849003D0010E2B6F848012004F
:10217000FF0EE350E84E1200000000D000D000D067
:06218000E82EFAD7120060
:0A218600000000000000000000004F
:10219000000000000000000000000000000000003F
:1021A000000000000000000000000000000000002F
:1021B000000000000000000000000000000000001F
:1021C000000000000000000000000000000000000F
:1021D00000000000000000000000000000000000FF
:1021E00000000000000000000000000000000000EF
:1021F00000000000000000000000000000000000DF
:1022000000000000000000000000000000000000CE
:1022100000000000000000000000000000000000BE
:1022200000000000000000000000000000000000AE
:10223000000000000000000000000000000000009E
:10224000000000000000000000000000000000008E
:10225000000000000000000000000000000000007E
:10226000000000000000000000000000000000006E
:10227000000000000000000000000000000000005E
:0C22800000000000000000000000000052
:04228C00000000004E
:10229000000000000000000000000000000000003E
:0A22A00000000000C800000000006C
:0622AA000000000000002E
:1022B000000000000000000000000000000000001E
:1022C000000000000000000000000000000000000E
:1022D00000000000000000000000000000000000FE
:0C22E000000000000000000000000001F1
:0422EC0000000000EE
:1022F00000000000000000000000000000000000DE
:1023000000000000000000000000000000000000CD
:1023100000000000000000000000000000000000BD
:1023200000000000000000000000000000000000AD
:10233000000000000000000000000000000000009D
:10234000000000000000000000000000000000008D
:10235000000000000000000000000000000000007D
:10236000000000000000000000000000000000006D
:10237000000000000000000000000000000000005D
:10238000000000000000000000000000000000004D
:10239000000000000000000000000000000000003D
:1023A000000000000000000000000000000000002D
:1023B000000000000000000000000000000000001D
:1023C000000000000000000000000000000000000D
:1023D00000000000000000000000000000000000FD
:1023E0000000000000003031323334353637000051
:1023F0004142434445464748000061626364656664
:042400006768000009
:020000040030CA
:0100010008F6
:0100020001FC
:0100030024D8
:01000500BD3D
:010006008079
:010008000FE8
:01000900C036
:01000A000FE6
:01000B00E014
:01000C000FE4
:01000D0040B2
:00000001FF
